:100000000224DA0231171230841229AAD2027F03A5
:10001000122C2CD202D203122FC253D9EF53D9F78C
:0F00200043D90453D9FD53D9FE22220218972247
:0300330002294956
:10003B0002003EC0E0E5D730E30353D7F7D0E03200
:03004B0002135746
:1000530002287C020417E86480F8E933E83360116E
:100063000460F0ED33EC337009E8FCE9FDEAFEEBE4
:10007300FF220460DED3EB9FEA9EE99DE8C2E78C92
:10008300F0C2F795F0400CE8CCF8E9CDF9EACEFAE6
:10009300EBCFFB1203E285D0F05804700320D5B3F5
:1000A300E80470075002B2D502042192D5EC046033
:1000B300F7E4CCC0E0C398F8603B94186008400DA7
:1000C300D0E0FB0203F9E4FBFAC9FC8028E830E442
:1000D30006E4C9FBE4CAFCE830E305E4C9CACBFC87
:1000E300E854076010F8C3E913F9EA13FAEB13FBBA
:1000F300EC13FCD8F130F52FC3E49CFCEF9BFFEE2F
:100103009AFEED99FDD0E0FBEF4E4D4C701222DBD1
:100113000302041EEC2CFCEF33FFEE33FEED33FD44
:10012300ED30E7EB0203F9EF2BFFEE3AFEED39FD7D
:10013300D0E0FB50130BBB0003020421ED13FDEED3
:1001430013FEEF13FFEC13FC0203F9EC4D6011E80F
:10015300497017ED33EC3304600DE4FCFFFEFD2220
:10016300E933E8330470F80204171203E258046019
:1001730009E4CC24815006285009020421284003B5
:1001830002041EC0E0EB4A7044B98006D0E0FB02D3
:10019300040DEF4E701CBD8008EBFFEAFEE9FD8005
:1001A300EBE98DF0A4FEE5F0020237E9CDF9EAFEB2
:1001B300EBFFEF89F0A4FCE5F0CE89F0A42EFFE479
:1001C30035F0CD89F0A42DFEE435F08067EF4E7055
:1001D30005BD80D780C3EF8BF0A4ACF0EE8BF0A409
:1001E3002CFCE435F0F8EF8AF0A42CE5F038FCE4BD
:1001F30033CB8DF0A42CFCE5F03BF8EE8AF0A42C75
:10020300FCE5F038F8E433CF89F0A42CFCE5F038B2
:10021300CF3400CE89F0A42FFFE5F03EFEE433C9CE
:100223008DF0A42EFEE5F039CD8AF0A42FFFE5F082
:100233003EFEE43DFD33D0E0FB50070BBB000F0255
:100243000421EC2CFCEF33FFEE33FEED33FD020310
:10025300F9020421EC5D046005E85904700302040B
:10026300171203E2580460F6EC4860F2EC7004FDE8
:10027300FEFF22C860DB2481C85009C39860025086
:100283000602041E9850CAF582E9294B4A7005AB51
:100293008202040D75F0007C1A7880C3EF9BEE9AFE
:1002A300ED99400DC3EF9BFFEE9AFEED99FDE842F9
:1002B300F0DC23ACF0D0E0FFD0E0FED0E0FDAB8279
:1002C30020E7101BEB60BAEC2CFCEF33FFEE33FEA0
:1002D300ED33FD0203F9E803F830E705C0F075F0EC
:1002E30000EF2FFFEE33FEED33FD40B830E7C28061
:1002F300AA74F8CC6480CCC86480C8F58204604FCB
:10030300C3EB9FF5F0EA9E42F0E99D42F0E89C457D
:10031300F0603C501DE5825FFFE582D313CB5BCBDE
:10032300F42B5582FB50280ABA002409B90020088F
:10033300801DE5825BFBE582D313CF5FCFF4C3134C
:100343002F5582FF50090EBE00050DBD00010CC3E1
:10035300EB9FF5F0EA9E42F0E99D42F0E89C45F000
:100363006007CC4820E701B3EC2275F020800E75BE
:10037300F010800575F0087D007E007F003392D574
:1003830030D5031205BBEC334010EF33FFEE33FEE1
:10039300ED33FDEC33FCD5F0ED22E5F0247EA2D560
:1003A30013CC92E7CDCEFF22EDD2E7CD33EC3392DF
:1003B300D524814006E4FFFEFDFC22FCE4CFCECD34
:1003C300CC24E0501174FF80EDC3CC13CCCD13CDFE
:1003D300CE13CECF13CF0470F030D5DE0205BBE9C8
:1003E300D2E7C933E833F892D5EDD2E7CD33EC3316
:1003F300FC5002B2D522EC30E7100FBF000C0EBE4A
:1004030000080DBD00040BEB6014A2D5EB13FCED4B
:1004130092E7FD2274FFFCFDFEFF22E480F8A2D5E3
:1004230074FF13FC7D80E480EFC5F0F8A3E028F0AF
:10043300C5F0F8E582158270021583E038F022BB1F
:10044300010A89828A83E0F5F0A3E022500687F04F
:1004530009E71922BBFE07E3F5F009E319228982B4
:100463008A83E493F5F074019322BB0110E582299A
:10047300F582E5833AF583E0F5F0A3E0225009E93C
:100483002582F886F008E622BBFE0AE92582F8E217
:10049300F5F008E222E5832AF583E993F5F0A3E971
:1004A3009322F8BB0111E58229F582E5833AF583AE
:1004B300E8F0E5F0A3F0225009E92582C8F608A682
:1004C300F022BBFE09E92582C8F2E5F008F222EF2B
:1004D3002BFFEE3AFEED39FDEC38FC22C3EF9BFF18
:1004E300EE9AFEED99FDEC98FC2275F008758200FA
:1004F300EF2FFFEE33FECD33CDCC33CCC58233C5E6
:10050300829BED9AEC99E58298400CF582EE9BFE76
:10051300ED9AFDEC99FC0FD5F0D6E4CEFBE4CDFAD1
:10052300E4CCF9A88222B800C1B90059BA002DEC75
:100533008BF084CFCECDFCE5F0CBF97818EF2FFF0D
:10054300EE33FEED33FDEC33FCEB33FB10D70399B5
:100553004004EB99FB0FD8E5E4F9FA227818EF2F62
:10056300FFEE33FEED33FDEC33FCC933C910D70581
:100573009BE99A4007EC9BFCE99AF90FD8E0E4C9A0
:10058300FAE4CCFB2275F010EF2FFFEE33FEED33D0
:10059300FDCC33CCC833C810D7079BEC9AE89940FD
:1005A3000AED9BFDEC9AFCE899F80FD5F0DAE4CD5F
:1005B300FBE4CCFAE4C8F922C3E49FFFE49EFEE423
:1005C3009DFDE49CFC22EB9FF5F0EA9E42F0E99D41
:1005D30042F0EC6480C864809845F022EB9FF5F00C
:1005E300EA9E42F0E99D42F0E89C45F022E8600F64
:1005F300ECC313FCED13FDEE13FEEF13FFD8F12252
:10060300E86010ECA2E713FCED13FDEE13FEEF130D
:10061300FFD8F022E8600FEFC333FFEE33FEED3374
:10062300FDEC33FCD8F122E0FCA3E0FDA3E0FEA344
:10063300E0FF22E0F8A3E0F9A3E0FAA3E0FB22EC59
:10064300F0A3EDF0A3EEF0A3EFF022A8828583F0F0
:10065300D083D082120665120665120665120665FE
:10066300E473E493A3C583C5F0C583C8C582C8F00A
:10067300A3C583C5F0C583C8C582C822D083D082F1
:10068300F8E4937012740193700DA3A393F87401AB
:1006930093F5828883E4737402936860EFA3A3A342
:1006A30080DFEC8EF0A4CCC5F0CCCDF8EFA4CEC5A2
:1006B300F02DFDE43CFCE8A42EC8C5F03DFDE43C70
:1006C300FCEFA4FFE5F028FEE43DFDE43CFC2290B2
:1006D3000248E064F16003020989900250E070026D
:1006E300A3E0700C7F0412305390024874F1F0229F
:1006F300D3900251E09446900250E09405404F900D
:10070300024874F1F090024AE475F00112042CD30C
:1007130090024BE094B890024AE06480948B5003BB
:10072300020A52740BF0A374B8F0900246E0647F9F
:100733006003020A52900251E024ECFE900250E062
:1007430034FF90025AF0A3CEF07F02020986C390D1
:100753000251E09484900250E09403400302096C38
:1007630090024874F1F090024A74FFF5F012042CE1
:1007730090027FE064037003020A52C390024BE0CD
:1007830094F690024AE06480947F4003020A527414
:10079300FFF0A374F6F0900246E0B4FF0F9002500E
:1007A300E0FFA3E0900258CFF0A3EFF0903F01E405
:1007B30093FE903F00E4937C002400FFEC3E900204
:1007C30058F0A3EFF0903F03E493FE903F02E493CD
:1007D3002400FFEC3E90025AF0A3EFF0900258E0A1
:1007E3007002A3E0600A90025AE07002A3E0701264
:1007F3009002587402F0A374EEF0A37405F0A3748E
:1008030090F090025BE024D4FD90025AE034FEFCA9
:10081300E4120372ECC0E0EDC0E0EEC0E0EFC0E034
:1008230090025AE0FCA3E0FDE4120372C8ECC8C9CD
:10083300EDC9CAEECACBEFCBD0E0FFD0E0FED0E0EB
:10084300FDD0E0FC1202577B007AFE79FF78461256
:10085300014E1203AB900238EEF0A3EFF090025971
:10086300E024EAFD900258E034FEFCE4120372EC4B
:10087300C0E0EDC0E0EEC0E0EFC0E090025AE0FC63
:10088300A3E0FDE4120372C8ECC8C9EDC9CAEECAFD
:10089300CBEFCBD0E0FFD0E0FED0E0FDD0E0FC1208
:1008A30002577B007AFE79FF784612014E1203ABA2
:1008B300900236EEF0A3EFF0C3900239E09FFF9071
:1008C3000238E09EFEE4FCFD9002421206429002D2
:1008D3004212062AE412036DC8ECC8C9EDC9CAEE78
:1008E300CACBEFCB7F007E327DF37C46120257905A
:1008F3000209120642E4FFFEFD7C40900209120643
:10090300361202F4600C400A90020912064E3FFFB1
:10091300FCB97F007EFE7DFF7C46900209120636FD
:1009230012014E1203AB90023EEEF0A3EFF09002E1
:1009330038E0FCA3E0FDE4120372900209120636CC
:1009430012014EC8ECC8C9EDC9CAEECACBEFCB7FC2
:10095300007EFE7DFF7C461200591203AB900240DD
:10096300EEF0A3EFF07F03801AE490024AF0A3F0C5
:1009730090024874F1F0900246E0647F6003020A3B
:10098300527F04023053900250E07002A3E07012D1
:10099300900281E054FEF09002607401F07F041233
:1009A3003053900258E0FAA3E0FB2407FFE43AFE39
:1009B300900250E0FCA3E0FDD39FEC9E50409002D8
:1009C3004A74FFF5F012042CC390024BE094FB90A1
:1009D300024AE06480947F507674FFF0A374FBF0C6
:1009E300900281E054FEF09002607401F0900009DF
:1009F300E0605CE4F09000087402F0D2FF22EB2484
:100A030016FFE43AFED3ED9FEC9E404390024AE486
:100A130075F00112042CD390024BE0946490024AC7
:100A2300E0648094804028E4F0A37464F090026151
:100A3300E0B47F1B900281E0FF20E01390028074FA
:100A4300FFF0EF4401900281F090026174FFF02205
:100A5300900008E0B40421E5D7C454079000F2F0F5
:100A6300E09001DBF0121206904072E0FFA3E090E9
:100A730001CBCFF0A3EFF022900008E064076003FE
:100A8300020C9A9000C0E064016008E06402600315
:100A9300020CBE904068E4F0904072E0FFA3E09047
:100AA30000E8CFF0A3EFF090406BE054FDF0122D7F
:100AB30032900005E0FF122B02E49000D5F0A3F082
:100AC3009000EAE0FEA3E07802CEC313CE13D8F978
:100AD300FFD39000E9E09F9000E8E09E4023E0FE12
:100AE300A3E07802CEC313CE13D8F9FFD39000EB63
:100AF300E09F9000EAE09E40089000E1E004F0806F
:100B0300789000E1E0D3648094814003E014F09096
:100B130000DEE004F0E0FF3395E0FEC39000E5E083
:100B23009F9000E4E09E5051E49000D7F0A3F0A31F
:100B3300F0A3F09000D5F0A3F09000C712062A901E
:100B43000141EEF0A3EFF09000C712062A90013F97
:100B5300EEF0A3EFF0E49000E1F09000DFE004F0AA
:100B6300A3E0FF9000DFE0FED3EF6480F8EE648043
:100B73009840069000087403F09000E8E0FFA3E0BB
:100B8300A3CFF0A3EFF09000E1E0FF3395E0FEC3C5
:100B93009000E3E09F9000E2E09E4003020C55903A
:100BA30000C0E064016003020C46FF122FE0904096
:100BB3007AE4F0A3F090013DE0FEA3E08EAFF5AE42
:100BC30090406BE054FDF0904069E0547FF090401A
:100BD3007AE4F0A3F0904069E0547FF09000E6E0FF
:100BE300FFA3E0904074CFF0A3EFF0904074E0FFD8
:100BF300A3E0A3CFF0A3EFF090406D74F7F0900063
:100C0300EE74F2F090406CE04408F0904069E044E8
:100C130080F09000CB12062A900141EEF0A3EFF092
:100C2300900141E0FFA3E090013FCFF0A3EFF090EC
:100C330000CB12062A782FEEF608EFF69000087420
:100C430008F0229000C0E064027070900008740302
:100C5300F02290407AE4F0A3F0904069E0547FF0F2
:100C63009000E6E0FFA3E0904074CFF0A3EFF09094
:100C73004074E0FFA3E0A3CFF0A3EFF090406D74C6
:100C8300F7F09000EE74F2F090406CE04408F090BE
:100C93004069E04480F022900008E0B4081D9040D1
:100CA30068E4F0122E5F90406BE04402F0122D32A4
:100CB3009000F7E0FEA3E0FF121C12229000DDE09B
:100CC300647F7003020E9C9000D3E0FEA3E0FFC399
:100CD3009000D6E09FEE6480F89000D5E0648098A1
:100CE3005003020E9CE4FF122FE0E49000D5F0A322
:100CF300F09000C3E0FEA3E0FFC39000D4E09FFFA9
:100D03009000D3E09EFEC39000C6E09FEE6480F89F
:100D13009000C5E06480985014E0FEA3E0FFC39008
:100D230000D4E09FF09000D3E09EF080609000D369
:100D3300E0FEA3E0FFC39000C4E09FFF9000C3E088
:100D43009EFEC39000C6E09FEE6480F89000C5E06D
:100D53006480985010E0FEA3E0FF9000D3EE8FF084
:100D630012042C80289000C3E0FEA3E0FF9000D380
:100D7300E06E7003A3E06F70059000C180039000E4
:100D8300C3E0FFA3E09000D3CFF0A3EFF0900141C5
:100D9300E0FEA3E0FFE4FCFD9000CB120636120454
:100DA300DF9000CF120636C31205C950159000CF4D
:100DB30012062AC3900142E09FF0900141E09EF0A9
:100DC3008043900141E0FEA3E0FFFBCAEECAE4F9D1
:100DD300F89000CB12062A1204DF9000CF120636D9
:100DE300C31205C950119000CF12062A900141EE9B
:100DF3008FF012042C800E9000CB12062A90014132
:100E0300EEF0A3EFF090406BE054FDF0122D329022
:100E13000005E0FF122B0290407AE4F0A3F090402B
:100E230069E0547FF09040747409F0A37460F0900B
:100E33004074E0FFA3E0A3CFF0A3EFF090406D7404
:100E4300F7F09000EE74F2F090406CE04408F090FC
:100E53004069E04480F0E4FF122FE09000D7E4758E
:100E6300F00112042C9000C3E0FEA3E0FF9000D336
:100E7300E06E7003A3E06F7020900141E0FEA3E0F9
:100E8300FFE4FCFD9000CB120636C31205C97009BE
:100E93009000D975F00112042C900002E0700B90C1
:100EA30000087402F090026014F07F012290022A7D
:100EB300E0B47F239001CBE0FEA3E0FF90022BE0A0
:100EC300FCA3E0FD7B0F122E2590022DEEF0A3EF85
:100ED300F090022A74FFF0900223E0B47F23900184
:100EE300CBE0FEA3E0FF900224E0FCA3E0FD7B0F38
:100EF300122E25900226EEF0A3EFF090022374FF4A
:100F0300F0900220E0647F6003020FB6900008E0D7
:100F1300B40218900280E0647F6039900221E0FE01
:100F2300A3E0FF7B0F7DDC7C058022900008E0902E
:100F33000221B4070DE0FEA3E0FF7B0F7DB87C0B1D
:100F4300800BE0FEA3E0FF7B0F7DDC7C05122E25EA
:100F53008EAD8FACAFACAEADE4FCFD7BDC7A05F9B6
:100F6300F8D31205C9402EAFACAEADCBEFCBCAEE72
:100F7300CA74B89FFB740B9EFAE499F9E49400F8E1
:100F8300AFACAEADE4FCFD1204D278011206038EC1
:100F9300B38FB2800CE5ADC313FEE5AC138EB3F58E
:100FA300B2E5ADC313FEE5AC138EB5F5B4900220E4
:100FB30074FFF090022FE0B47F269001CBE0FEA3F4
:100FC300E0FFE4FCFD9002011206429001C7120605
:100FD3002A1221E79001D612064290022F74FFF0E5
:100FE300900230E0B47F339001D612062AEEC0E0BF
:100FF300EFC0E09001CE12062ACDEFCDCCEECC901F
:1010030002027401F0A374D2F0D0E0FFD0E0FE7BC3
:101013000F122A5E90023074FFF0900231E0B47F29
:101023003B900236E0FCA3E0FD900234E0FEA3E037
:10103300FFD39DEE9C401F90023EE0FCA3E0FD7BAE
:101043000F122E25900241E02FFF900240E03E90C8
:101053000232F0A3EFF090023174FFF022900246C7
:10106300747FF090024874F1F0E490024CF0A3F026
:10107300A3F0A3F0A3F0A3F0A312064E0000000018
:10108300E4900256F0A3F090025C12064E000000BA
:1010930000E4900258F0A3F0A3F0A3F09002497487
:1010A300FFF09002607401F0900258E07002A3E038
:1010B300600A90025AE07002A3E070129002587422
:1010C30002F0A374EEF0A37405F0A37490F0900201
:1010D3005AE0FCA3E0FDE4120372ECC0E0EDC0E0D3
:1010E300EEC0E0EFC0E090025AE0FCA3E0FDE412A2
:1010F3000372D0E0FBD0E0FAD0E0F9D0E0F81202BE
:10110300577B007AFE79FF784612014E1203AB90AB
:101113000238EEF0A3EFF0900259E02416FD90029E
:1011230058E03400FCE4120372ECC0E0EDC0E0EEE2
:10113300C0E0EFC0E090025AE0FCA3E0FDE412033C
:1011430072C8ECC8C9EDC9CAEECACBEFCBD0E0FF79
:10115300D0E0FED0E0FDD0E0FC1202577B007AFE27
:1011630079FF784612014E1203AB900236EEF0A3DC
:10117300EFF0C3900239E09FFF900238E09EFEE457
:10118300FCFD90024212064290024212062AE41229
:10119300036DC8ECC8C9EDC9CAEECACBEFCB7F005B
:1011A3007E327DF37C461202579002111206427F73
:1011B300007EFE7DFF7C4690021112063612014E20
:1011C3001203AB90023EEEF0A3EFF0900238E0FC86
:1011D300A3E0FDE412037290021112063612014ECF
:1011E300C8ECC8C9EDC9CAEECACBEFCB7F007EFEFF
:1011F3007DFF7C461200591203AB900240EEF0A330
:10120300EFF0229001DCE004F09001DBE0D3648096
:1012130094864003021351E0FF3395E0FE742F2FB1
:10122300F58274313EF583E493FF9001DDE4F0A38E
:10123300EFF0A3E0A3E0FF9001DDE0A3E0C39FFF95
:10124300C364809485400674FA2FFF800CD3EF6447
:1012530080947B500474062FFF9001DDE0FDA3E032
:10126300A3CDF0A3EDF0EFB401099001E3E475F031
:1012730001800BEFB4FF139001E374FFF5F0120448
:101283002CE49001E5F0A3F0800A9001E5E475F009
:101293000112042C9001E8E0FFD39001E4E09F7475
:1012A30080F89001E3E0648098400F9001E8E0FF4C
:1012B3009001E3E4F0A3EFF080339001E8E0FFC393
:1012C300E49FFFE49400FEC39001E4E09FEE64809A
:1012D300F89001E3E064809850139001E8E0FFC3C5
:1012E300E49FFEE494009001E3F0A3CEF09001E8C4
:1012F300E0FFC39001E4E09F7480F89001E3E064B1
:10130300809840089001E77401F0802B9001E8E099
:10131300FFC3E49FFFE49400FED39001E4E09FEE5B
:101323006480F89001E3E06480989001E7500574CD
:1013330002F0800374FFF0C39001E6E0940A900189
:10134300E5E06480948040069001E7747FF09001AB
:10135300E7E0FF22C0E0C0F0C083C082C0D0E8C095
:10136300E0E9C0E0EAC0E0EBC0E0ECC0E0EDC0E0E3
:10137300EEC0E0EFC0E0E5A930E708E5A9547F44FB
:1013830060F5A9E5A930E512E5A954DF44C0F5A944
:10139300904037E04440F0120EB0E59D20E7030291
:1013A3001453D3E5A4942CE5A59401500302144BE4
:1013B300E5A494C9E5A59408400302144B90025098
:1013C300E5A5F0A3E5A4F0900260E0601BC39002E2
:1013D30051E0948A900250E09404500C9001F3740D
:1013E30001F0A374E0F08015900260E4F0E5A4241A
:1013F300D49001F4F0E5A534FE9001F3F09001F3ED
:10140300E0FEA3E0FFE4FCFD780F120617A312062B
:101413004290025AE0FEA3E0FFE4FCFD9001F912C2
:1014230006427E017FF57C017DF9122C7190023416
:10143300EEF0A3EFF0900231747FF0A3E0FFA3E09E
:10144300900143CFF0A3EFF0E59D547F4460F59DF9
:10145300E59D30E608E59D54BF44A0F59DE59D302C
:10146300E516900250E4F0A3F0A29133900249F004
:10147300E59D54DF44C0F59DD0E0FFD0E0FED0E011
:10148300FDD0E0FCD0E0FBD0E0FAD0E0F9D0E0F80A
:10149300D0D0D082D083D0F0D0E03290018B12062E
:1014A3004E3A7001E0E4900191F0A3F0A312064ECE
:1014B30000000000C3900159E0648094815012E061
:1014C300FEA3E0FFC3E49FFFE49E900157F0A3EF68
:1014D300F0C390015FE0648094815012E0FEA3E0CA
:1014E300FFC3E49FFFE49E90015DF0A3EFF0C39080
:1014F3000165E0648094815012E0FEA3E0FFC3E441
:101503009FFFE49E900163F0A3EFF0C390019DE081
:10151300648094815008E0FEA3E0FFC38024C3905D
:10152300019EE094FF90019DE0648094C4501FA34A
:10153300E094FF90019DE0648094BA4011E0FEA323
:10154300E0FFE49FFFE49E90019BF0A3EFF0900186
:101553009712064E3BE34798E490019DF0A3F0A356
:1015630012064E00000000E49001A3F0A3F0A3F0E4
:10157300A3F0A312064E00000000E49001ABF0A319
:10158300F0A3F0A3F0A312064E00000000E49001C4
:10159300B3F0A3F0A3F0A3F0A312064E00000000E3
:1015A300E49001BBF0A3F0A3F0A3F022904070E419
:1015B300F0A3F0C2FF900002F090026004F09000EC
:1015C3002AE0706D04F0900009E090002BF0900287
:1015D30081E0FFC313540390002DF09001D2120653
:1015E3002A900030EEF0A3EFF090013FE0FCA3E07F
:1015F300FDE412037290003A12064290019DE0FF4F
:10160300A3E0900032CFF0A3EFF0900191E0FFA3AD
:10161300E0900034CFF0A3EFF090019F12062A90E0
:10162300003E12064290019312062A9000421206CF
:1016330042900009E064026005E06401703A9001A1
:1016430032E0701690012DE0C39432500DE004F0A7
:10165300E4A3F0A3F090013204F0900132E0B4016E
:1016630017C390012FE0940590012EE094004008E9
:10167300E4900132F01230E6900009E06406600E57
:10168300E064096009E064086004E0B4071C9000AA
:10169300B7E07016C39000B3E094019000B2E094F9
:1016A300004007E4F0A3F0122F667F012290406A06
:1016B300E04401F0E04402F0E04404F0E04408F0C8
:1016C300E04410F0E04420F0904068E04408F0E08B
:1016D3004410F0E04420F090406AE054BFF09040A2
:1016E30068E04480F0E04440F0E04404F0E0440269
:1016F300F0E04401F0A3E054FEF090406BE054F7B7
:10170300F0E054FBF0E054FDF0904069E054DFF06A
:10171300E054EFF090406BE054FEF0E0547FF0E0D3
:1017230054BFF0E054DFF0E054EFF090406AE0443F
:1017330080F090407874FFF0A3F0A3E4F0A304F0EA
:1017430090406BE04401F0904069E0547FF0E04446
:1017530040F090407474FFF0A3F0A3F0A3F0904026
:101763006DE4F090406CE054FEF0E04402F0E0548D
:10177300FBF0E054F7F0E04410F09040647422F082
:10178300E0C3940550057405F08010904064E0D3E5
:1017930094F474809481400374F4F0904070E4F006
:1017A300A3F0D2FF22904070E4F0A3F0900141F047
:1017B300A304F0900141E0FFA3E090013FCFF0A329
:1017C300EFF07F07122FE0C39001EAE0941E90012F
:1017D300E9E0940040030218799001E7E0F4700314
:1017E300021883E0FF900003E06F706EFF122FE09A
:1017F300900003E0B40122C39001E0E0940690015D
:10180300DFE0648094805009E475F00112042C80B9
:10181300089001DFE4F0A304F09001DFE0A3E0907F
:101823000005F0E0FF122FE09000CB12062A900192
:1018330041EEF0A3EFF0900141E0FFA3E090013F00
:10184300CFF0A3EFF09000CB12062A782FEEF60824
:10185300EFF69000087408F080269001E7E0B47F6B
:101863000280139000087402F090026014F090005C
:101873000774F3F0800A90000774F1F0A37405F085
:10188300900002E0700B9000087402F09002601464
:10189300F07F0122C0E0C0F0C083C082C0D0E8C0A6
:1018A300E0E9C0E0EAC0E0EBC0E0ECC0E0EDC0E09E
:1018B300EEC0E0EFC0E090406DE030E20B90406C92
:1018C300E030E204A374FBF090406DE030E11F9040
:1018D300406CE030E11890009CE4F0A3F09000F934
:1018E300E06002B2B7120A5390406D74FDF090406D
:1018F3006DE030E309122D7090406D74F7F0904065
:101903006DE030E45590406CE030E44EA374EFF0AA
:101913009001CDE004F0E0D3648094E44003746468
:10192300F09001CB747FF0A374FFF09001D6120600
:101933004E000000009001D212064E0000000090FD
:1019430001D212062A900071EEF0A3EFF09000711D
:10195300E0FFA3E0A3CFF0A3EFF0D0E0FFD0E0FEE1
:10196300D0E0FDD0E0FCD0E0FBD0E0FAD0E0F9D04D
:10197300E0F8D0D0D082D083D0F0D0E03290403C99
:10198300E0FEA3E07803C333CE33CED8F9FF900152
:1019930091E0FCA3E0FD7B107A27122F4290019186
:1019A300EEF0A3EFF0904040E0FEA3E07803C333F2
:1019B300CE33CED8F9FF90020DEEF0A3EFF09000F6
:1019C30008E0D39401502190020DE0FEA3E0FF90C4
:1019D300019DE0FCA3E0FD7B107A27122F429001CA
:1019E3009DEEF0A3EFF0802990019BE0FEA3E0FFC2
:1019F30090020EE02FFF90020DE03E90019DF0A3B8
:101A0300EFF0C390019DE0648094805004E4F0A360
:101A1300F090403EE0FEA3E07803C333CE33CED84C
:101A2300F9FF9001ABEEF0A3EFF0904044E0FEA38A
:101A3300E07803C333CE33CED8F9FF9001B3EEF091
:101A4300A3EFF0904046E0FEA3E07803C333CE3328
:101A5300CED8F9FF9001BBEEF0A3EFF02290021C69
:101A63007403F074E8A3F07F01900217EFF0C2AFA4
:101A7300D3940740037407F0E4FFFE7D807C3F901E
:101A830002181206361202F4600C400A9002181271
:101A9300064E3F800000900217E090314793FCE42C
:101AA30012037790021812063612014EE4FBFAF97C
:101AB300783F12014E1203AB900217EFF0E490024D
:101AC3001EF0A3F090021CE0FEA3E0FFC390021FF0
:101AD300E09F90021EE09E505C904070E4F0A3747F
:101AE30082F0900217E0FF7E001230C4904070E451
:101AF300F0A3F0900217E075F003A4FFAEF01230EC
:101B0300C4904070E4F0A37428F0900217E0FF7EC5
:101B1300001230C4904070E4F0A3F0900217E07517
:101B2300F003A4FFAEF01230C490021EE475F0017E
:101B330012042C808FD2AF22C3900089E09400500E
:101B430038900141743FF0A374FFF0900141E0FF2E
:101B5300A3E090013FCFF0A3EFF090013FE0FEA39D
:101B6300E0FF122DAE90014DEEF0A3EFF090407028
:101B7300E4F0A37408F0021BFEC3900089E0940014
:101B8300500B904070E4F0A37480F0806EC390001B
:101B930089E0940090407050087408F0A3E4F0804A
:101BA3005AE4F0A3F0900141741CF0A37428F09060
:101BB3000141E0FFA3E090013FCFF0A3EFF0E490F9
:101BC30000BEF0A3F09000087406F09000B812066F
:101BD3002A900141EEF0A3EFF0900141E0FFA3E072
:101BE30090013FCFF0A3EFF090013FE0FEA3E0FFB1
:101BF300122DAE90014DEEF0A3EFF0900002E070D5
:101C03000B9000087402F090026014F07F0122EF41
:101C13004E7003021CBA900224EEF0A3EFF0900280
:101C230023747FF0900226E0FEA3E0FFD39410EE2E
:101C33009427400C9002267427F0A37410F08012AE
:101C4300C3EF940AEE94005009900226E4F0A374C3
:101C53000AF0900226E0FEA3E0FFC3900229E09F72
:101C6300900228E09E5006E475F001800790022858
:101C730074FFF5F012042C900005E0FF122B029084
:101C83004069E0547FF090406CE04408F090406974
:101C9300E04480F0900226E0FFA3E0904074CFF090
:101CA300A3EFF0904074E0FFA3E0A3CFF0A3EFF025
:101CB3009000EE74F1F022900226E4F0A304F09079
:101CC300406BE054FDF0900005E0FF122B02900002
:101CD300F3E0FEA3E0FF122656904069E0547FF044
:101CE30022900009E0FF12281112002E122EF41286
:101CF3002096900231747FF0A3E0FEA3E0FF9000F2
:101D03006DEEF0A3EFF0900143EEF0A3EFF090023D
:101D130081E030E00EC313540360089000027401A5
:101D2300F08057900281E020E050900007E0B4F18A
:101D330002803D900007E064F2702E90006DF0A3E6
:101D4300F0900143F0A3F0900008E0B4081990016B
:101D53003FE0FEA3E0FFE4FCFD7B667A06F9F8D3DF
:101D63001205C9401580098007900007E0B4F30A03
:101D7300E4900002F090026004F0900008E0B408E0
:101D83000F900143E0FFA3E0900141CFF0A3EFF0F8
:101D930090013FE0FEA3E0FFE4FCFD7B287A1CF901
:101DA300F8C31205C9500453DAF72243DA08229024
:101DB30000BCE0FEA3E0FFC39000BFE09F9000BE25
:101DC300E09E503C9040707404F0A37441F0900086
:101DD300B812062A900141EEF0A3EFF0900141E022
:101DE300FFA3E090013FCFF0A3EFF090013FE0FEAF
:101DF300A3E0FF122DAE90014DEEF0A3EFF080585B
:101E0300904070E4F0A3F0FF122FE09000C7120699
:101E13002A900141EEF0A3EFF090013FEEF0A3EF23
:101E2300F0900003E0B4010CE4900006F09000058C
:101E330004F08012900003E0B4020BE4900006F07B
:101E43009000057402F09000DD74FFF075AF0B7520
:101E5300AEB89000087407F0900002E0700B900099
:101E6300087402F090026014F07F01229000F9746C
:101E730001F09000EE74F0F09000C07401F0900057
:101E8300B812064E00000666E49000BCF0A3F09082
:101E930000D7F0A3F0A3F0A3F09000D3F0A3740F46
:101EA300F0E4A3F0A3F09000C1F0A3740FF0A3E457
:101EB300F0A37408F0A3E4F0A37423F0A312064E76
:101EC300000019999000CB12064E00001C289000C8
:101ED300CF12064E000001479000DBE4F0A3740527
:101EE300F0E49000DEF0A3F09000E1F09000E074E5
:101EF30002F09000E2E4F0A37464F0A3E4F0A374AE
:101F030032F0A37409F0A37460F0E49000F7F0A337
:101F1300F09000F3F0A3F09001E87405F0E4900270
:101F230028F0A3F022900209EEF0A3EFF090014114
:101F3300E0FEA3E0FBCAEECAE4F9F890013FE0FE3D
:101F4300A3E0FFE4FCFD1204DFC8ECC8C9EDC9CA75
:101F5300EECACBEFCB900147E0FEA3E0FFE4FCFD2C
:101F6300D31205C94016900147E0FEA3E0FF90019C
:101F730040E09FF090013FE09EF0805990013FE0E8
:101F8300FEA3E0FBCAEECAE4F9F8A3E0FEA3E0FF78
:101F9300E4FCFD1204DFC8ECC8C9EDC9CAEECACB24
:101FA300EFCB900145E0FEA3E0FFE4FCFDD3120577
:101FB300C94013900145E0FEA3E0FF90013FEE8F7F
:101FC300F012042C800F900141E0FFA3E090013F49
:101FD300CFF0A3EFF090013FE0FEA3E0FF229002D9
:101FE30080E0647F7003022093900141747FF0A32B
:101FF30074FFF0900141E0FFA3E090013FCFF0A315
:10200300EFF090013FE0FEA3E0FF122DAE90014DF3
:10201300EEF0A3EFF07F07122FE0900007E064F1EA
:102023006004E0B4F212904070E4F0A3F090000278
:10203300E09000087055803F900007E064F3705013
:10204300C390008EE0943290008DE09400500C9089
:1020530040707408F0A37488F0803590008DE4F02C
:10206300A37432F09040707408F0A37488F0900069
:1020730002E0700D9000087402F090026014F0808A
:102083000F904070E4F0A3F09000087403F0D2FFC7
:102093007F0122900280E0647F600302213B900273
:1020A3007FE024FD604114605F1470030221322439
:1020B30003600302213B90021812064E3E99999A3F
:1020C300121A60C2AF7F887E1312301BD2AF900208
:1020D3001812064E3E99999A121A6090024674FF9E
:1020E300F0900280F0805190021812064E3E9999AA
:1020F3009A90021C7405F074DC121A6890028074C2
:10210300FFF0900248F0803090021812064E3E4CC9
:10211300CCCD121A60C2AF7F207E4E12301BD2AFDD
:1021230090021812064E3E4CCCCD121A6080091252
:1021330028E390027F7401F090028074FFF02290F4
:102143000094E475F00112042C900091E475F00101
:1021530012042C900007E0B4F318A3E0B4020C902F
:10216300008DE475F00112042C8007E490008DF0DB
:10217300A3F0900004E0647F705F90008975F00124
:1021830012042C90008BE475F00112042C9000BE15
:10219300E475F00112042C9000D5E475F0011204EB
:1021A3002C9001E9E475F00112042C9000B2E4755F
:1021B300F00112042C90012EE475F00112042CD3CB
:1021C30090019EE0948190019DE094049000B040C2
:1021D30002800974FFF5F08007900087E475F00131
:1021E30012042C229001FD12064290020512064EA3
:1021F30000000000D200200003022280C200E5C1DB
:1022030030E7FB9001FD12062A78101205F08EC705
:102213008FC69001FD12062A8EC58FC4900201124B
:10222300062A78101205F08ECF8FCE900201120687
:102233002A8ECD8FCC43C101E5C130E7FB90020567
:10224300120636AFC6AEC7E4FCFD1204D2900205F7
:1022530012064290020512062A78101206179002FF
:1022630005120642900205120636AFC4AEC5E4FC61
:10227300FD1204D29002051206420221F9D2009007
:10228300020512062A2290013D7405F0A374DCF0C6
:10229300E4900009F0900272747FF0900261F09074
:1022A300013A7410F07401F0A304F0A37414F090D5
:1022B3000281E054F94402F0E0FFC3135403900099
:1022C30003F090000774F1F090004B12064E48C3E0
:1022D30050009000467401F0A312064E439B000089
:1022E30012149E122BE6E49001CBF0A3F0A304F0AA
:1022F30090004B12062A1203AB9001CE12064290B5
:1023030001C712064E012BFDA8121E6FE490013087
:10231300F0A3F090012EF0A3F090012DF022904055
:1023230037E04480F0E054DFF0904035E04404F0BF
:1023330075B50075B401E04410F0E04408F0904036
:1023430052E04410F0904036E04480F0904051E079
:102353004480F0904036E04410F0904051E0442037
:10236300F0904036E04408F0904051E04410F09083
:102373004036E04404F0904051E04408F090403689
:10238300E04402F0904051E04401F0904036E044D4
:1023930001F09040497433F0904048F0904037E0AA
:1023A30054FEF0E04402F0904035E054FEF0E05477
:1023B300FDF022900008E06408705B90013075F036
:1023C3000112042C90009CE475F00112042C90007F
:1023D300B4E475F00112042C9001CBE0FEA3E0FFFE
:1023E300C39420EE9403500C90009EE475F0011208
:1023F300042C8007E490009EF0A3F0D3EF9400EE4A
:102403009453400C9000A0E475F00112042C801149
:10241300E49000A08008E4900066F09000B4F0A37C
:10242300F0C390019EE0948190019DE094045007D5
:10243300900134E004F022900134E014F0E0C394FE
:10244300005002E4F022900000E475F00112042C25
:10245300900137E004F0900139E004F0900138E096
:1024630004F0C3900001E0940A900000E09400405F
:1024730009E4F0A3F01221428036900000E07004DA
:10248300A3E06401700C900004E0B47F23122A05DA
:10249300801E900000E07004A3E06402700C9000C2
:1024A30004E0B47F0B1223B68006900000E0A3E0A3
:1024B300900141E0FEA3E0FF121F2890013FEEF0E0
:1024C300A3EFF090013FE0FEA3E0FF122DAE9001D9
:1024D3004DEEF0A3EFF022787FE4F6D8FD75814846
:1024E300022521022FA4E493A3F8E493A34003F667
:1024F3008001F208DFF48029E493A3F85407240C45
:10250300C8C333C4540F4420C8834004F456800125
:1025130046F6DFE4800B010204081020408090306F
:102523009AE47E019360BCA3FF543F30E509541F36
:10253300FEE493A360010ECF54C025E060A840B829
:10254300E493A3FAE493A3F8E493A3C8C582C8CAA7
:10255300C583CAF0A3C8C582C8CAC583CADFE9DE7A
:10256300E780BE904051E04440F0E04480F053D611
:10257300BF43D62043D61043D60853D7F753D57F4E
:1025830043D54053DA7F53D7F743D640904050E0CA
:102593004410F0E04420F0E04440F0E04480F0A335
:1025A300E04402F0E04404F053D6FB53D6FD43D697
:1025B3000143DA0853DAFB43DA0243DA0143FC80CE
:1025C30053D5DF53D5EF53D5F753D5FB53D5FD5330
:1025D300D5FE43DA4043DA2043DA1022900002E0CA
:1025E3007011904070F0A3F09000087402F0900214
:1025F3006014F0C3900131E09488900130E09413AB
:1026030040107413F0A37488F0E490012DF0A3F04C
:10261300A3F0C390000DE0941090000CE0942740C9
:102623000FE490000AF0A3F0A37403F0A374E8F09E
:10263300C39000B5E094039000B4E094024011E429
:102643009000B2F0A3F0A37402F0A304F0E4A3F0AB
:102653007F0122904069E0547FF0EF4E603F90028B
:102663002BEEF0A3EFF090022A747FF090022DE09E
:10267300FFA3E0904074CFF0A3EFF0904074E0FF2D
:10268300A3E0A3CFF0A3EFF09000EE74F2F090403C
:102693006CE04408F0904069E04480F02290022D01
:1026A300E4F0A304F0FF7E00EF1FCCEECC70011E1C
:1026B3004C60030080F2900005E0FF122FE09000D1
:1026C300EE74F0F022E49001DDF0A3F0A3F0A3F0A8
:1026D3009001E5F0A3F09001E3F0A3F09001E1F0A5
:1026E300A3F09001E774FFF0E49000D7F0A3F0A308
:1026F300F0A3F09000C1E0FFA3E09000D3CFF0A3DC
:10270300EFF0E4A3F0A3F09000DEF0A3F09000E17B
:10271300F09000F57409F0A37460F0E4900061F0A8
:10272300A3F090005FF0A3F0900065F0900228F012
:10273300A3F022539DFE439C80539CBF439C2043A4
:102743009C01439C10539CF7439D04E59D547F4497
:1027530060F59DE59D54BF44A0F59DE59D54DF4480
:10276300C0F59D539DEF539DF775A70075A601E432
:10277300F5A5F5A4F5A375A201539CFE539CFD5347
:10278300FDFD904054E04402F0904050E054FDF0D1
:10279300439D1090404CE04408F0439D08439D0145
:1027A30022900008E012067F27CA0127D20227DA07
:1027B3000327E20427EA0527F20627FA0728020877
:1027C300280A0900002810122F85EF704080F812A4
:1027D3001FE1EF703880F8122ECAEF703080F812C4
:1027E30017A8EF702880F8121B3BEF702080F812B7
:1027F3001DB2EF701880F8120CBFEF701080F81242
:1028030025DFEF700880F81215AFEF60FA22C9EFE9
:10281300C97FF47E01E96059D3900092E09F900054
:1028230091E09E4053CDE9CDED25E014FD9000935A
:10283300E0D39D5020EF24F4FDEE33FCD3900092BF
:10284300E09D900091E09C402FEEF0A3EFF0A3E019
:1028530004F0B2A022EF2464FDE43EFCD390009286
:10286300E09D900091E09C400FEEF0A3EFF0B2A04A
:1028730022E4900091F0A3F022C0E0C0F0C083C036
:1028830082C0D0E8C0E0E9C0E0EAC0E0EBC0E0EC21
:10289300C0E0EDC0E0EEC0E0EFC0E0E59F30E5153D
:1028A300122449122B9D900008E0C39402400312A6
:1028B30006D2539FDFE59130E5035391DFD0E0FF6C
:1028C300D0E0FED0E0FDD0E0FCD0E0FBD0E0FAD0D9
:1028D300E0F9D0E0F8D0D0D082D083D0F0D0E0328D
:1028E300E4900213F0A3F0E4900215F0900215E0D7
:1028F300FFC394035025EFC0E090021812064E3E2A
:10290300CCCCCD90021C7401F0A374F4F0D0E0FFA2
:10291300121A6C900215E004F080D1900213E47552
:10292300F00112042CC3900214E09401900213E00E
:10293300940040B3C2AF7F107E2712301BD2AF90FA
:10294300027F7401F022C0E0C0F0C083C082C0D017
:10295300E8C0E0E9C0E0EAC0E0EBC0E0ECC0E0EDD5
:10296300C0E0EEC0E0EFC0E0904037E030E00A1294
:102973001980904037E054FEF0904035E030E00499
:10298300E054FEF0D0E0FFD0E0FED0E0FDD0E0FC6C
:10299300D0E0FBD0E0FAD0E0F9D0E0F8D0D0D0829C
:1029A300D083D0F0D0E03290404DE054F7F0E044D3
:1029B30004F0E04402F090021112064E0000000001
:1029C300E47FC07E5DFDFC900211120636C3120542
:1029D300DF501B90021112062AEF2401FFE43EFE92
:1029E300E43DFDE43CFC90021112064280D290408B
:1029F3004DE04401F0C2FDC2FCC2FBC2FAC2F9C2FF
:102A0300F822900008E0C390009DE0940F90009C92
:102A1300E0940040069000097406F0C390009FE024
:102A2300946490009EE0940040069000097407F0BF
:102A3300C39000A1E094649000A0E094004006904D
:102A430000097408F0900009E0600F904070E4F012
:102A5300A3F0C2FF9000087409F022EBB4080553F9
:102A6300C1F78010EBB40C0543C108800FEBB40F22
:102A73000843C10843C104800653C1F753C1FB5344
:102A8300C1FD8EC38FC2CEECCECFEDCF8ECB8FCA1E
:102A9300900202E0FEA3E0FFF5828E83E5C3F0A37C
:102AA300E5C2F08F828E83A3A3E5CBF0A3E5CAF042
:102AB3002275AF0575AEDC900281E0FFC3135403AA
:102AC300900003F09000057405F0E4A3F01226C80B
:102AD300900143740CF0A374CCF0900143E0FFA386
:102AE300E0900141CFF0A3EFF0E490013FF0A3F0B9
:102AF300122CB2122DEB900261747FF00230F4902D
:102B03000005EFF0E0FFA3E06F603F900005E0A356
:102B1300F0900008E064086009E064076004E0B432
:102B23000528900005E0FF3395E0FEEF25E0FFEE7A
:102B330033FE74372FF58274313EF583E493FF74CB
:102B43000193904070CFF0A3EFF07F012212303851
:102B53001216B0122E96122736122CF212232112BD
:102B6300256612306C12310C1230D512310012105E
:102B730060122FFEE4900087F0A3F0900004E0D3EE
:102B8300900088E09464900087E0940040F1900006
:102B930004747FF0E4900009F02230811390026600
:102BA300E004F0900268E0B4010CA37401F0800625
:102BB300900266E014F0900266E0FFD3648094E430
:102BC300400AE4A3F09002667464F022C3EF6480C9
:102BD300941C500E9002677401F0A3F09002667487
:102BE3009CF022E4900143F0A3F090013FF0A3F0A6
:102BF300A3F0A3F090014504F0A374F4F0A37401CF
:102C0300F0A374F4F0A3747FF0A374FFF0A3740132
:102C1300F0A37447F090014F7413F0A374B6F090CF
:102C23000153E4F0A37464F022EF146012146017EC
:102C33001460212403702890404FE0547F800E904D
:102C4300404FE0547F801390404FE04480F0E054C5
:102C5300BFF0800B90404FE04480F0E04440F090A0
:102C6300404FE03002044410F02254EFF0228F82F0
:102C73008E83E0FAA3E08AC7F5C68F828E83A3A36F
:102C8300E0FEA3E08EC5F5C48D828C83E0FEA3E055
:102C93008ECFF5CE8D828C83A3A3E0FEA3E08ECDF1
:102CA300F5CC43C101E5C130E7FBAFC4AEC522E4B7
:102CB300900098F0A3F0900096F0A3F090009AF0A3
:102CC300A3F09000A2F0A3F0A3F0A3F0A3F0A3F06D
:102CD300A3F0A3F0A3F0A3F090009CF0A3F0A3F063
:102CE300A3F0A3F0A3F0900091F0A3F0A3F022537C
:102CF3009FFE539E7F539EBF539EDF439E01439E81
:102D030010539EF7539F7F539FBF539FDF539FEFF4
:102D1300439F08759709759660E597C313FEE5967B
:102D2300138E95F594759300759201439F01227F4D
:102D3300027E01900003E06E7016900005E0C3640C
:102D43008094865004E004F0229000057401F02280
:102D5300900003E06F7015900005E0D364809481C8
:102D63004004E014F0229000057406F02290406BBA
:102D7300E054FDF09000EEE0B4F10B9000F3E0FEC0
:102D8300A3E0FF0226569000EEE0B4F21D904069E6
:102D9300E0547FF09000F9E06002B284900005E017
:102DA300FF122FE09000EE74F0F022740A2FFFE47C
:102DB3003EFEC390014AE09F900149E09E5002808D
:102DC3000DD390014CE09F90014BE09E4005E0FE47
:102DD300A3E0FF900221EEF0A3EFF0900220747FB6
:102DE300F0A3E0FEA3E0FF22E4900262F0A3F090E0
:102DF3000265F0900264F0900266F0A3F09002691D
:102E0300F0900268F090026AF0A3F090026DF090E7
:102E1300026CF090026EF0A3F0900271F0900270D9
:102E2300F022EBB4080553C1F78010EBB40C054353
:102E3300C108800FEBB40F0843C10843C1048006E7
:102E430053C1F753C1FB53C1FD8EC38FC2CEECCE2A
:102E5300CFEDCF8ECB8FCAAFCAAECB22904072E0FC
:102E6300FEA3E0D39414EE94004021904072E0FF5F
:102E7300A3E09001CBCFF0A3EFF09001CBE0FFA351
:102E8300E0900061CFF0A3EFF012002A900066E01B
:102E930004F02253A17F53A1BF53A1DF43A10153E8
:102EA300A1FB53A1FD43A11043A10843A91043A9CA
:102EB3000853A9FB53A9FD75AD0175AC2C75AF057E
:102EC30075AEDC43A90122122AB4E4900089F0A371
:102ED300F09001E9F0A3F09000087404F090000270
:102EE300E0700B9000087402F090026014F07F0110
:102EF30022E4900211F0A3F0A312064E000000009A
:102F0300900191E0FCA3E0FDEC12037290018B129F
:102F1300063612014E9001930206428ADD8BDC8E47
:102F2300DF8FDECEECCECFEDCF8EE78FE643F90118
:102F330000000000000000000000AFE6AEE72290B2
:102F4300020FEEF0A3EFF0900282E0B47F1474FF5F
:102F5300F090020FE0FEA3E0FF122F1E9002827496
:102F63007FF0229000B6E004F0E490009CF0A3F020
:102F7300A3F0A3F0A3F0A3F09000B7F01230E67F24
:102F83000122122289904070E4F0A3F07F051230F1
:102F93005343DA809000087402F090026014F0FF4B
:102FA30022120006122B501222899000087401F09D
:102FB300900281E054FEF0121CE41227A480F890E2
:102FC300404FE03002054402F0800354FDF090408E
:102FD3004FE03003044401F02254FEF0229000033A
:102FE300E0B40106EF90311F800B900003E0B402C0
:102FF30009EF90312793904068F022C2AFD2BBD241
:10300300BAC2C5C2C4C2C7C2C6D2C3D2C2C2CBD25D
:10301300CAC2CDD2CCD2AF22CBEFCBCAEECAEB1B06
:10302300CEEACE70011A4E60097F187E001230C4BA
:1030330080EC7F002243FC1043FF8043FC4043FCB1
:103043008043FF4043FE01C2A043FF0843FF8022A9
:10305300900280E0B4FF11747FF090027FEFF0BF25
:103063000206900246747FF022904051E04480F0C3
:10307300A3E04401F0E04402F090404EE04401F04C
:1030830022900000AF82AE83D3EF94FFEE940F50F3
:1030930005E4F0A380EE2242027D000041027A00A3
:1030A300410279004102827FC101C10000E4900224
:1030B30020F0900223F090022AF090022FF0A3F068
:1030C30022EF1FCCEECC70011E4C60030080F27F18
:1030D3000022904054E054EFF0E054BFF0A3E054DA
:1030E300FDF022D2FFE4900009F09000087403F091
:1030F3002290028074FFF0E490027FF02253C1F724
:1031030053C1FB53C1FD0230B053FCFD904053E06B
:103113004402F022C0E053DBFED0E03200BC7AB9B7
:103123007CBA79FF007CBA79BC7AB9FF000103024B
:103133000506040700000085080508500058050827
:0B31430005800888E5CCB6AB998879C0
:00000001FF
